:020000020000FC
:1000000003EE0AB90FEF04B90FEF07B924E038E0A7
:1000100040E1A0E04A2E19B10E9460001223D9F3FA
:100020000E94680060E070E080E00E94580059B1D2
:100030000E946000522349F419B10E94600013230A
:10004000D9F30E9468006395F0CF0E9468000E9477
:10005000580059B10E946000522349F419B10E941E
:1000600060001323D9F30E9468007395F0CF0E94BB
:1000700068000E94580059B10E946000522349F460
:1000800019B10E9460001423D9F30E94680083957F
:10009000F0CF0E946800815009F002C0670F03C0D2
:1000A000679F602D00C06A30C4F06A50A395FBCFF3
:1000B000BFEFCFE3D0E3B150C040D040E1F70895A7
:1000C000BFEFC3EDD5E0B150C040D040E1F7089597
:1000D0000BB90E946000ABB90895640D49F000E2CD
:1000E0000BB90E9458004BB80E9458006A95B9F7A6
:1000F000A40D49F000E40BB90E9458004BB80E94CF
:080100005800AA95B9F77CCF65
:00000001FF
